{
  "_format": "hh-sol-artifact-1",
  "contractName": "TokenStaking",
  "sourceName": "contracts/TokenStaking.sol",
  "abi": [
    {
      "inputs": [
        {
          "internalType": "address",
          "name": "_stakingToken",
          "type": "address"
        }
      ],
      "stateMutability": "nonpayable",
      "type": "constructor"
    },
    {
      "inputs": [
        {
          "internalType": "address",
          "name": "owner",
          "type": "address"
        }
      ],
      "name": "OwnableInvalidOwner",
      "type": "error"
    },
    {
      "inputs": [
        {
          "internalType": "address",
          "name": "account",
          "type": "address"
        }
      ],
      "name": "OwnableUnauthorizedAccount",
      "type": "error"
    },
    {
      "anonymous": false,
      "inputs": [
        {
          "indexed": true,
          "internalType": "address",
          "name": "previousOwner",
          "type": "address"
        },
        {
          "indexed": true,
          "internalType": "address",
          "name": "newOwner",
          "type": "address"
        }
      ],
      "name": "OwnershipTransferred",
      "type": "event"
    },
    {
      "anonymous": false,
      "inputs": [
        {
          "indexed": true,
          "internalType": "address",
          "name": "user",
          "type": "address"
        },
        {
          "indexed": false,
          "internalType": "uint256",
          "name": "reward",
          "type": "uint256"
        }
      ],
      "name": "RewardPaid",
      "type": "event"
    },
    {
      "anonymous": false,
      "inputs": [
        {
          "indexed": true,
          "internalType": "address",
          "name": "user",
          "type": "address"
        },
        {
          "indexed": false,
          "internalType": "uint256",
          "name": "amount",
          "type": "uint256"
        }
      ],
      "name": "Staked",
      "type": "event"
    },
    {
      "anonymous": false,
      "inputs": [
        {
          "indexed": true,
          "internalType": "address",
          "name": "user",
          "type": "address"
        },
        {
          "indexed": false,
          "internalType": "uint256",
          "name": "amount",
          "type": "uint256"
        }
      ],
      "name": "Unstaked",
      "type": "event"
    },
    {
      "inputs": [],
      "name": "claimReward",
      "outputs": [],
      "stateMutability": "nonpayable",
      "type": "function"
    },
    {
      "inputs": [],
      "name": "owner",
      "outputs": [
        {
          "internalType": "address",
          "name": "",
          "type": "address"
        }
      ],
      "stateMutability": "view",
      "type": "function"
    },
    {
      "inputs": [],
      "name": "renounceOwnership",
      "outputs": [],
      "stateMutability": "nonpayable",
      "type": "function"
    },
    {
      "inputs": [],
      "name": "rewardRate",
      "outputs": [
        {
          "internalType": "uint256",
          "name": "",
          "type": "uint256"
        }
      ],
      "stateMutability": "view",
      "type": "function"
    },
    {
      "inputs": [
        {
          "internalType": "address",
          "name": "",
          "type": "address"
        }
      ],
      "name": "rewards",
      "outputs": [
        {
          "internalType": "uint256",
          "name": "",
          "type": "uint256"
        }
      ],
      "stateMutability": "view",
      "type": "function"
    },
    {
      "inputs": [
        {
          "internalType": "uint256",
          "name": "amount",
          "type": "uint256"
        }
      ],
      "name": "stake",
      "outputs": [],
      "stateMutability": "nonpayable",
      "type": "function"
    },
    {
      "inputs": [
        {
          "internalType": "address",
          "name": "",
          "type": "address"
        }
      ],
      "name": "stakes",
      "outputs": [
        {
          "internalType": "uint256",
          "name": "",
          "type": "uint256"
        }
      ],
      "stateMutability": "view",
      "type": "function"
    },
    {
      "inputs": [],
      "name": "stakingToken",
      "outputs": [
        {
          "internalType": "contract IERC20",
          "name": "",
          "type": "address"
        }
      ],
      "stateMutability": "view",
      "type": "function"
    },
    {
      "inputs": [
        {
          "internalType": "address",
          "name": "newOwner",
          "type": "address"
        }
      ],
      "name": "transferOwnership",
      "outputs": [],
      "stateMutability": "nonpayable",
      "type": "function"
    },
    {
      "inputs": [
        {
          "internalType": "uint256",
          "name": "amount",
          "type": "uint256"
        }
      ],
      "name": "unstake",
      "outputs": [],
      "stateMutability": "nonpayable",
      "type": "function"
    }
  ],
  "bytecode": "0x60806040526064600255348015610014575f5ffd5b5060405161111c38038061111c8339818101604052810190610036919061021c565b335f73ffffffffffffffffffffffffffffffffffffffff168173ffffffffffffffffffffffffffffffffffffffff16036100a7575f6040517f1e4fbdf700000000000000000000000000000000000000000000000000000000815260040161009e9190610256565b60405180910390fd5b6100b6816100fd60201b60201c565b508060015f6101000a81548173ffffffffffffffffffffffffffffffffffffffff021916908373ffffffffffffffffffffffffffffffffffffffff1602179055505061026f565b5f5f5f9054906101000a900473ffffffffffffffffffffffffffffffffffffffff169050815f5f6101000a81548173ffffffffffffffffffffffffffffffffffffffff021916908373ffffffffffffffffffffffffffffffffffffffff1602179055508173ffffffffffffffffffffffffffffffffffffffff168173ffffffffffffffffffffffffffffffffffffffff167f8be0079c531659141344cd1fd0a4f28419497f9722a3daafe3b4186f6b6457e060405160405180910390a35050565b5f5ffd5b5f73ffffffffffffffffffffffffffffffffffffffff82169050919050565b5f6101eb826101c2565b9050919050565b6101fb816101e1565b8114610205575f5ffd5b50565b5f81519050610216816101f2565b92915050565b5f60208284031215610231576102306101be565b5b5f61023e84828501610208565b91505092915050565b610250816101e1565b82525050565b5f6020820190506102695f830184610247565b92915050565b610ea08061027c5f395ff3fe608060405234801561000f575f5ffd5b506004361061009c575f3560e01c80637b0a47ee116100645780637b0a47ee146101445780638da5cb5b14610162578063a694fc3a14610180578063b88a802f1461019c578063f2fde38b146101a65761009c565b80630700037d146100a057806316934fc4146100d05780632e17de7814610100578063715018a61461011c57806372f702f314610126575b5f5ffd5b6100ba60048036038101906100b591906109e8565b6101c2565b6040516100c79190610a2b565b60405180910390f35b6100ea60048036038101906100e591906109e8565b6101d7565b6040516100f79190610a2b565b60405180910390f35b61011a60048036038101906101159190610a6e565b6101ec565b005b6101246103ad565b005b61012e6103c0565b60405161013b9190610af4565b60405180910390f35b61014c6103e5565b6040516101599190610a2b565b60405180910390f35b61016a6103eb565b6040516101779190610b1c565b60405180910390f35b61019a60048036038101906101959190610a6e565b610412565b005b6101a4610604565b005b6101c060048036038101906101bb91906109e8565b6107b7565b005b6004602052805f5260405f205f915090505481565b6003602052805f5260405f205f915090505481565b8060035f3373ffffffffffffffffffffffffffffffffffffffff1673ffffffffffffffffffffffffffffffffffffffff1681526020019081526020015f2054101561026c576040517f08c379a000000000000000000000000000000000000000000000000000000000815260040161026390610b8f565b60405180910390fd5b8060035f3373ffffffffffffffffffffffffffffffffffffffff1673ffffffffffffffffffffffffffffffffffffffff1681526020019081526020015f205f8282546102b89190610bda565b9250508190555060015f9054906101000a900473ffffffffffffffffffffffffffffffffffffffff1673ffffffffffffffffffffffffffffffffffffffff1663a9059cbb33836040518363ffffffff1660e01b815260040161031b929190610c0d565b6020604051808303815f875af1158015610337573d5f5f3e3d5ffd5b505050506040513d601f19601f8201168201806040525081019061035b9190610c69565b503373ffffffffffffffffffffffffffffffffffffffff167f0f5bb82176feb1b5e747e28471aa92156a04d9f3ab9f45f28e2d704232b93f75826040516103a29190610a2b565b60405180910390a250565b6103b561083b565b6103be5f6108c2565b565b60015f9054906101000a900473ffffffffffffffffffffffffffffffffffffffff1681565b60025481565b5f5f5f9054906101000a900473ffffffffffffffffffffffffffffffffffffffff16905090565b5f8111610454576040517f08c379a000000000000000000000000000000000000000000000000000000000815260040161044b90610cde565b60405180910390fd5b60015f9054906101000a900473ffffffffffffffffffffffffffffffffffffffff1673ffffffffffffffffffffffffffffffffffffffff166323b872dd3330846040518463ffffffff1660e01b81526004016104b293929190610cfc565b6020604051808303815f875af11580156104ce573d5f5f3e3d5ffd5b505050506040513d601f19601f820116820180604052508101906104f29190610c69565b508060035f3373ffffffffffffffffffffffffffffffffffffffff1673ffffffffffffffffffffffffffffffffffffffff1681526020019081526020015f205f82825461053f9190610d31565b925050819055506103e8600254826105579190610d64565b6105619190610dd2565b60045f3373ffffffffffffffffffffffffffffffffffffffff1673ffffffffffffffffffffffffffffffffffffffff1681526020019081526020015f205f8282546105ac9190610d31565b925050819055503373ffffffffffffffffffffffffffffffffffffffff167f9e71bc8eea02a63969f509818f2dafb9254532904319f9dbda79b67bd34a5f3d826040516105f99190610a2b565b60405180910390a250565b5f60045f3373ffffffffffffffffffffffffffffffffffffffff1673ffffffffffffffffffffffffffffffffffffffff1681526020019081526020015f205490505f8111610687576040517f08c379a000000000000000000000000000000000000000000000000000000000815260040161067e90610e4c565b60405180910390fd5b5f60045f3373ffffffffffffffffffffffffffffffffffffffff1673ffffffffffffffffffffffffffffffffffffffff1681526020019081526020015f208190555060015f9054906101000a900473ffffffffffffffffffffffffffffffffffffffff1673ffffffffffffffffffffffffffffffffffffffff1663a9059cbb33836040518363ffffffff1660e01b8152600401610725929190610c0d565b6020604051808303815f875af1158015610741573d5f5f3e3d5ffd5b505050506040513d601f19601f820116820180604052508101906107659190610c69565b503373ffffffffffffffffffffffffffffffffffffffff167fe2403640ba68fed3a2f88b7557551d1993f84b99bb10ff833f0cf8db0c5e0486826040516107ac9190610a2b565b60405180910390a250565b6107bf61083b565b5f73ffffffffffffffffffffffffffffffffffffffff168173ffffffffffffffffffffffffffffffffffffffff160361082f575f6040517f1e4fbdf70000000000000000000000000000000000000000000000000000000081526004016108269190610b1c565b60405180910390fd5b610838816108c2565b50565b610843610983565b73ffffffffffffffffffffffffffffffffffffffff166108616103eb565b73ffffffffffffffffffffffffffffffffffffffff16146108c057610884610983565b6040517f118cdaa70000000000000000000000000000000000000000000000000000000081526004016108b79190610b1c565b60405180910390fd5b565b5f5f5f9054906101000a900473ffffffffffffffffffffffffffffffffffffffff169050815f5f6101000a81548173ffffffffffffffffffffffffffffffffffffffff021916908373ffffffffffffffffffffffffffffffffffffffff1602179055508173ffffffffffffffffffffffffffffffffffffffff168173ffffffffffffffffffffffffffffffffffffffff167f8be0079c531659141344cd1fd0a4f28419497f9722a3daafe3b4186f6b6457e060405160405180910390a35050565b5f33905090565b5f5ffd5b5f73ffffffffffffffffffffffffffffffffffffffff82169050919050565b5f6109b78261098e565b9050919050565b6109c7816109ad565b81146109d1575f5ffd5b50565b5f813590506109e2816109be565b92915050565b5f602082840312156109fd576109fc61098a565b5b5f610a0a848285016109d4565b91505092915050565b5f819050919050565b610a2581610a13565b82525050565b5f602082019050610a3e5f830184610a1c565b92915050565b610a4d81610a13565b8114610a57575f5ffd5b50565b5f81359050610a6881610a44565b92915050565b5f60208284031215610a8357610a8261098a565b5b5f610a9084828501610a5a565b91505092915050565b5f819050919050565b5f610abc610ab7610ab28461098e565b610a99565b61098e565b9050919050565b5f610acd82610aa2565b9050919050565b5f610ade82610ac3565b9050919050565b610aee81610ad4565b82525050565b5f602082019050610b075f830184610ae5565b92915050565b610b16816109ad565b82525050565b5f602082019050610b2f5f830184610b0d565b92915050565b5f82825260208201905092915050565b7f496e73756666696369656e742062616c616e63650000000000000000000000005f82015250565b5f610b79601483610b35565b9150610b8482610b45565b602082019050919050565b5f6020820190508181035f830152610ba681610b6d565b9050919050565b7f4e487b71000000000000000000000000000000000000000000000000000000005f52601160045260245ffd5b5f610be482610a13565b9150610bef83610a13565b9250828203905081811115610c0757610c06610bad565b5b92915050565b5f604082019050610c205f830185610b0d565b610c2d6020830184610a1c565b9392505050565b5f8115159050919050565b610c4881610c34565b8114610c52575f5ffd5b50565b5f81519050610c6381610c3f565b92915050565b5f60208284031215610c7e57610c7d61098a565b5b5f610c8b84828501610c55565b91505092915050565b7f43616e6e6f74207374616b65207a65726f0000000000000000000000000000005f82015250565b5f610cc8601183610b35565b9150610cd382610c94565b602082019050919050565b5f6020820190508181035f830152610cf581610cbc565b9050919050565b5f606082019050610d0f5f830186610b0d565b610d1c6020830185610b0d565b610d296040830184610a1c565b949350505050565b5f610d3b82610a13565b9150610d4683610a13565b9250828201905080821115610d5e57610d5d610bad565b5b92915050565b5f610d6e82610a13565b9150610d7983610a13565b9250828202610d8781610a13565b91508282048414831517610d9e57610d9d610bad565b5b5092915050565b7f4e487b71000000000000000000000000000000000000000000000000000000005f52601260045260245ffd5b5f610ddc82610a13565b9150610de783610a13565b925082610df757610df6610da5565b5b828204905092915050565b7f4e6f207265776172647320617661696c61626c650000000000000000000000005f82015250565b5f610e36601483610b35565b9150610e4182610e02565b602082019050919050565b5f6020820190508181035f830152610e6381610e2a565b905091905056fea26469706673582212204fc63060ee9826772a9af96d66b1b006066451e4b7ad2e7b952475234a48539164736f6c634300081c0033",
  "linkReferences": {},
  "deployedLinkReferences": {}
}